:020000040000FA
:0400000097EF3FF047
:107F2E000001C7EF3FF0C450046E036AC350032430
:107F3E00016E000E0420026E1200046E000EC26E60
:107F4E00000EC16E000EC06E0144E846FC0B3C0BE9
:107F5E00C21202C003F00F0E03160150300B0310B5
:107F6E00C1120450BF0BC012C28001AEC1EF3FF070
:107F7E00C3EF3FF0C6EF3FF09E9C9F9C9D8C12007E
:107F8E00010E926E000E936E000E946E000E956EA4
:107F9E00000E966E000E806E000E816E000E826ECA
:107FAE00000E836E000E846E400E016EFE0E026E8B
:107FBE00550EA4EC3FF0C282C2B2E8EF3FF0EAEFFA
:107FCE003FF0E3EF3FF09AEC3FF001C006F002C045
:107FDE0007F006C082FF0750836E680E056EE40E32
:107FEE00E82EFED7052EFCD700D0E2EF3FF000EFD3
:027FFE0000F091
:020000040020DA
:08000000FFFFFFFFFFFFFFFF00
:020000040030CA
:0E000000000C0E00FF8381FF0FC00FE00F40C9
:00000001FF
