:020000040000FA
:040000007CEF3FF062
:107EF80000017FEF3FF0000E926E040E936E000EAD
:107F0800946E000E956E000E966E81A48EEF3FF073
:107F180090EF3FF0FAEF3FF0800E836E100E026E86
:107F2800390E016E0E0EE82EFED7012EFCD7022E5A
:107F3800FAD7D8908332100E026E390E016E0E0EEB
:107F4800E82EFED7012EFCD7022EFAD7D89083321E
:107F5800100E026E390E016E0E0EE82EFED7012E9F
:107F6800FCD7022EFAD7D8908332100E026E390E43
:107F7800016E0E0EE82EFED7012EFCD7022EFAD780
:107F8800D8908332100E026E390E016E0E0EE82E56
:107F9800FED7012EFCD7022EFAD7D8908332100EC6
:107FA800026E390E016E0E0EE82EFED7012EFCD79A
:107FB800022EFAD7D8908332100E026E390E016E57
:107FC8000E0EE82EFED7012EFCD7022EFAD7D89037
:107FD8008332100E026E390E016E0E0EE82EFED799
:107FE800012EFCD7022EFAD789EF3FF0000E836EE0
:087FF80089EF3FF000EF00F0FB
:020000040020DA
:08000000FFFFFFFFFFFFFFFF00
:020000040030CA
:0E000000000C0E1EFF8181FF0FC00FE00F40AD
:00000001FF
