:020000040000FA
:04000000C9EF3FF015
:107F92000001CCEF3FF0000E926E010E936E000EC8
:107FA200946E000E956E000E966E81A0DBEF3FF090
:107FB200DDEF3FF0FAEF3FF083681A0E026E5E0EBD
:107FC200016E6E0EE82EFED7012EFCD7022EFAD7D6
:107FD20000D0000E836E1A0E026E5E0E016E6E0EE1
:107FE200E82EFED7012EFCD7022EFAD700D0D6EF0C
:0E7FF2003FF0000E836ED6EF3FF000EF00F080
:020000040020DA
:08000000FFFFFFFFFFFFFFFF00
:020000040030CA
:0E000000000C0E00FF8181FF0FC00FE00F40CB
:00000001FF
