:020000040000FA
:04000000C8EF3FF016
:107F90000001CBEF3FF0000E926E080E936E000EC4
:107FA000946E000E956E000E966E81A6DAEF3FF08D
:107FB000DCEF3FF0FAEF3FF0550E836E0D0E026ED0
:107FC000AF0E016EB60EE82EFED7012EFCD7022EA4
:107FD000FAD700D0AA0E836E0D0E026EAF0E016EA0
:107FE000B60EE82EFED7012EFCD7022EFAD700D00F
:107FF000D5EF3FF0000E836ED5EF3FF000EF00F0BD
:020000040020DA
:08000000FFFFFFFFFFFFFFFF00
:020000040030CA
:0E000000000C0E00FF8181FF0FC00FE00F40CB
:00000001FF
