:020000040000FA
:0400000037EF3FF0A7
:107E64003F065B4F666D7D077F6F640EF66E7E0E78
:107E7400F76E000EF86E00EE0CF010EE0AF009003A
:107E8400F5CFEEFFE550E150FAE100014AEF3FF093
:107E9400000E926E9368000E946E000E956E000EA6
:107EA400966E20EE0CF010EE02F0090EDBCFE3FF2D
:107EB400E806FCE281A061EF3FF063EF3FF06EEF74
:107EC4003FF002C083FF820E016EDE0EE82EFED765
:107ED400012EFCD770EF3FF0000E836E81A275EF88
:107EE4003FF077EF3FF082EF3FF003C083FF820E55
:107EF400016EDE0EE82EFED7012EFCD784EF3FF094
:107F0400000E836E81A489EF3FF08BEF3FF096EF74
:107F14003FF004C083FF820E016EDE0EE82EFED712
:107F2400012EFCD798EF3FF0000E836E81A69DEFE3
:107F34003FF09FEF3FF0AAEF3FF005C083FF820EB2
:107F4400016EDE0EE82EFED7012EFCD7ACEF3FF01B
:107F5400000E836E81A8B1EF3FF0B3EF3FF0BEEFA8
:107F64003FF006C083FF820E016EDE0EE82EFED7C0
:107F7400012EFCD7C0EF3FF0000E836E81AAC5EF3F
:107F84003FF0C7EF3FF0D2EF3FF007C083FF820E10
:107F9400016EDE0EE82EFED7012EFCD7D4EF3FF0A3
:107FA400000E836E81ACD9EF3FF0DBEF3FF0E6EFDC
:107FB4003FF008C083FF820E016EDE0EE82EFED76E
:107FC400012EFCD7E8EF3FF0000E836E81AEEDEF9B
:107FD4003FF0EFEF3FF0FAEF3FF009C083FF820E6E
:107FE400016EDE0EE82EFED7012EFCD75CEF3FF0CB
:0C7FF400000E836E5CEF3FF000EF00F029
:020000040020DA
:08000000FFFFFFFFFFFFFFFF00
:020000040030CA
:0E000000000C0E00FF8181FF0FC00FE00F40CB
:00000001FF
