:020000040000FA
:04000000DEEF06F039
:1008000000546573746520646973706C61790000CD
:100810000A6E95949598959A959C959E959295902B
:100820000AB002D0839001D0838003B002D08392BB
:1008300001D0838203500410D8A421EF04F023EFE9
:1008400004F09EEF04F0086A05AE01D0082A0846BD
:10085000084683500818FB0B0818836E05C008F083
:10086000060E096ED8900832092E32EF04F0083ACD
:1008700083500818EF0B0818836E05C008F0050EAA
:10088000096ED8900832092E41EF04F0083A084664
:1008900083500818DF0B0818836E05C008F0083A6B
:1008A0000F0E0816083A0846084683500818BF0B72
:1008B0000818836E838E000E026E020E016EF3EC3A
:1008C00006F0839E05C008F0D8900832D890083210
:1008D000D89008320846084683500818FB0B0818C1
:1008E000836E05C008F0D8900832D8900832083AD4
:1008F00083500818EF0B0818836E05C008F0D890D5
:100900000832083A084683500818DF0B0818836E2F
:1009100005B002D0839C01D0838C838E000E026EC2
:10092000020E016EF3EC06F0839E06C001F007C0D4
:1009300002F0F3EC06F0000E1FEF05F095849588A9
:10094000958A958C838E000E026E020E016EF3EC7A
:1009500006F0000E83B4010E0B6E83B8B2EF04F004
:10096000B6EF04F0086A082AB7EF04F0086A0B50E3
:100970000B2408100B6E83BAC0EF04F0C4EF04F030
:10098000086A082AC5EF04F0086A0B500B24081007
:100990000B6E83BCCEEF04F0D2EF04F0086A082A95
:1009A000D3EF04F0086A0B500B2408100B6E839EE3
:1009B000838E000E026E020E016EF3EC06F083B41D
:1009C000E4EF04F0E8EF04F0086A082AE9EF04F025
:1009D000086A0B500B2408100B6E83B8F2EF04F07A
:1009E000F6EF04F0086A082AF7EF04F0086A0B50E3
:1009F0000B2408100B6E83BA00EF05F004EF05F02E
:100A0000086A082A05EF05F0086A0B500B24081045
:100A10000B6E83BC0EEF05F012EF05F0086A082A92
:100A200013EF05F0086A0B500B2408100B6E839E21
:100A300006C001F007C002F0F3EC06F00B50120004
:100A40000F6E20EE19F010EE10F0050EDBCFE3FF75
:100A5000E806FCE20FC012F00CC013F00DC014F059
:100A600095949598959A959C959E9592959083903E
:100A70008392839E4E0E026E200E016EF3EC06F002
:100A8000000E166E10C00EF0D8900E32D8900E32B6
:100A9000D8900E320E460E4683500E18FB0B0E18E1
:100AA000836E10C00EF0D8900E32D8900E320E3AEF
:100AB00083500E18EF0B0E18836E10C00EF0D890F6
:100AC0000E320E3A0E4683500E18DF0B0E18836E50
:100AD00010B002D0839C01D0838C838E000E026EF6
:100AE000020E016EF3EC06F0839E130E026E880E6A
:100AF000016EF3EC06F0162A020E166482EF05F082
:100B000084EF05F042EF05F011C00EF0D8900E32E0
:100B1000D8900E32D8900E320E460E4683500E18E4
:100B2000FB0B0E18836E11C00EF0D8900E32D890C9
:100B30000E320E3A83500E18EF0B0E18836E11C052
:100B40000EF0D8900E320E3A0E4683500E18DF0B80
:100B50000E18836E11B002D0839C01D0838C838EDB
:100B6000000E026E020E016EF3EC06F0839E000E84
:100B7000026E280E016EF3EC06F0000E046E000EFD
:100B8000036E12C005F0000E076E280E066E000EF2
:100B900008EC04F0000E046E000E036E13C005F0A6
:100BA000000E076E280E066E000E08EC04F0000E14
:100BB000046E000E036E14C005F0000E076E280EC2
:100BC000066E000E08EC04F014EC07F012000F6E35
:100BD0002AEF06F0000E046E000E036E0C507F0F1D
:100BE000056E000E076E280E066E000E08EC04F06F
:100BF00047EF06F0000E046E000E036E0C50BF0FA0
:100C0000056E000E076E280E066E000E08EC04F04E
:100C100047EF06F0000E046E000E036E0C50930FAB
:100C2000056E000E076E280E066E000E08EC04F02E
:100C300047EF06F0000E046E000E036E0C50D30F4B
:100C4000056E000E076E280E066E000E08EC04F00E
:100C500047EF06F00F500D6E0E6A0E50000AD8B422
:100C600034EF06F047EF06F00D50010AD8B4EAEF72
:100C700005F0030AD8B4FAEF05F0010AD8B40AEF78
:100C800006F0070AD8B41AEF06F047EF06F0120094
:100C9000000E926E000E936E000E946E000E956E16
:100CA000000E966E0F0E0C6E060E0D6E280E20ECCA
:100CB00005F014EC07F0010E0C6E010EE7EC05F0E8
:100CC000000E8CEC06F0060E0C6E010EE7EC05F043
:100CD000010E0D6E080E0E6EAAEC06F0040E0C6EE0
:100CE000020EE7EC05F0010E0D6E080E0E6EAAEC7A
:100CF00006F0020E186E860E176E990EE82EFED7BD
:100D0000172EFCD7182EFAD700F0010EC5EC06F00E
:100D100079EF06F000EF00F0116E20EE1FF010EEFC
:100D20000CF0040EDBCFE3FFE806FCE2000E046EDD
:100D3000000E036E0C0E1124D96EDA6A000EDA2250
:100D4000DF50056E000E076E280E066E000E08ECD2
:100D500004F01200B6EF06F00DC0F6FF0EC0F7FF6C
:100D60000800F55005EC07F00D4A0E2A0DC0F6FFFD
:100D70000EC0F7FF0800F5500009D8A4C2EF06F036
:100D8000C4EF06F0ACEF06F012000E6E24C00CF0BB
:100D900025C00DF0000E046E000E036E0C0E0E2426
:100DA000D96EDA6A000EDA22DF50056E000E076E89
:100DB000280E066E000E08EC04F01200440EF66ECB
:100DC0000E0EF76E000EF86E00EE19F010EE0FF03A
:100DD0000900F5CFEEFFE550E150FAE1000EF86EA4
:100DE000000148EF06F000F000F000F000F000F025
:100DF0000106D8A0020601500210D8A402EF07F0A5
:100E000004EF07F0F3EF06F012000C6E000E046E14
:100E1000000E036E0CC005F0000E076E2D0E066E60
:100E2000010E08EC04F01200000E046E000E036EBA
:100E3000010E056E070E076ED00E066E000E08EC52
:100E400004F012000302000000000C080F0E0D1C3D
:030E500018141063
:020000040020DA
:08000000FFFFFFFFFFFFFFFF00
:020000040030CA
:0E000000000C0E00FF8181FF0FC00FE00F40CB
:00000001FF
