:020000040000FA
:0400000071EF3FF06D
:107EE200000174EF3FF0000E926E030E936E000ECF
:107EF200946E000E956E000E966E81A083EF3FF099
:107F020085EF3FF0BBEF3FF0010E836E030E026E72
:107F12008A0E016E560EE82EFED7012EFCD7022ED7
:107F2200FAD7D8908336030E026E8A0E016E560E71
:107F3200E82EFED7012EFCD7022EFAD7D890833630
:107F4200030E026E8A0E016E560EE82EFED7012E29
:107F5200FCD7022EFAD7D8908336030E026E8A0E11
:107F6200016E560EE82EFED7012EFCD7022EFAD74E
:107F7200BDEF3FF00F0E836E81A2C2EF3FF0C4EF60
:107F82003FF0FAEF3FF0080E836E030E026E8A0E88
:107F9200016E560EE82EFED7012EFCD7022EFAD71E
:107FA200D8908332030E026E8A0E016E560EE82EB0
:107FB200FED7012EFCD7022EFAD7D8908332030EB9
:107FC200026E8A0E016E560EE82EFED7012EFCD7E7
:107FD200022EFAD7D8908332030E026E8A0E016EF9
:107FE200560EE82EFED7012EFCD7022EFAD77EEFD0
:0E7FF2003FF00F0E836E7EEF3FF000EF00F0C9
:020000040020DA
:08000000FFFFFFFFFFFFFFFF00
:020000040030CA
:0E000000000C0E00FF8181FF0FC00FE00F40CB
:00000001FF
