:020000040000FA
:0400000017EF3FF0C7
:107E24003F065B4F666D7D077F6F240EF66E7E0EF8
:107E3400F76E000EF86E00EE0CF010EE0AF009007A
:107E4400F5CFEEFFE550E150FAE100012AEF3FF0F3
:107E5400000E926E9368000E946E000E956E000EE6
:107E6400966E20EE0CF010EE02F0090EDBCFE3FF6D
:107E7400E806FCE281A041EF3FF043EF3FF050EF12
:107E84003FF002C083FF828082920D0E016EFC0ED1
:107E9400E82EFED7012EFCD754EF3FF0000E836E80
:107EA4008290829281A259EF3FF05BEF3FF068EF3E
:107EB4003FF003C083FF829082820D0E016EFC0EA0
:107EC400E82EFED7012EFCD76CEF3FF0000E836E38
:107ED4008290829281A471EF3FF073EF3FF080EFC4
:107EE4003FF004C083FF828082920D0E016EFC0E6F
:107EF400E82EFED7012EFCD784EF3FF0000E836EF0
:107F04008290829281A689EF3FF08BEF3FF098EF49
:107F14003FF005C083FF829082820D0E016EFC0E3D
:107F2400E82EFED7012EFCD79CEF3FF0000E836EA7
:107F34008290829281A8A1EF3FF0A3EF3FF0B0EFCF
:107F44003FF006C083FF828082920D0E016EFC0E0C
:107F5400E82EFED7012EFCD7B4EF3FF0000E836E5F
:107F64008290829281AAB9EF3FF0BBEF3FF0C8EF55
:107F74003FF007C083FF829082820D0E016EFC0EDB
:107F8400E82EFED7012EFCD7CCEF3FF0000E836E17
:107F94008290829281ACD1EF3FF0D3EF3FF0E0EFDB
:107FA4003FF008C083FF828082920D0E016EFC0EAA
:107FB400E82EFED7012EFCD7E4EF3FF0000E836ECF
:107FC4008290829281AEE9EF3FF0EBEF3FF0F8EF61
:107FD4003FF009C083FF829082820D0E016EFC0E79
:107FE400E82EFED7012EFCD73CEF3FF0000E836E47
:0C7FF400829082923CEF3FF000EF00F022
:020000040020DA
:08000000FFFFFFFFFFFFFFFF00
:020000040030CA
:0E000000000C0E00FF8181FF0FC00FE00F40CB
:00000001FF
