:020000040000FA
:0400000074EF3FF06A
:107EE800000177EF3FF0000E926E020E936E000EC7
:107EF800946E000E956E000E966E81A286EF3FF08E
:107F080088EF3FF0FAEF3FF0010E836E150E026E18
:107F18004B0E016EBE0EE82EFED7012EFCD7022EA8
:107F2800FAD700D0D8908336150E026E4B0E016E2C
:107F3800BE0EE82EFED7012EFCD7022EFAD700D0AF
:107F4800D8908336150E026E4B0E016EBE0EE82ECB
:107F5800FED7012EFCD7022EFAD700D0D890833650
:107F6800150E026E4B0E016EBE0EE82EFED7012EC8
:107F7800FCD7022EFAD700D0D8908336150E026EA1
:107F88004B0E016EBE0EE82EFED7012EFCD7022E38
:107F9800FAD700D0D8908336150E026E4B0E016EBC
:107FA800BE0EE82EFED7012EFCD7022EFAD700D03F
:107FB800D8908336150E026E4B0E016EBE0EE82E5B
:107FC800FED7012EFCD7022EFAD700D0D8908336E0
:107FD800150E026E4B0E016EBE0EE82EFED7012E58
:107FE800FCD7022EFAD700D081EF3FF0000E836E47
:087FF80081EF3FF000EF00F003
:020000040020DA
:08000000FFFFFFFFFFFFFFFF00
:020000040030CA
:0E000000000C0E00FF8181FF0FC00FE00F40CB
:00000001FF
