:020000040000FA
:04000000B7EF3FF027
:107F6E000001DBEF3FF0010EC26E000EC16E950EEA
:107F7E00C06E1200680E036EE40EE82EFED7032EBE
:107F8E00FCD700D0C282C2B2CFEF3FF0D1EF3FF0AC
:107F9E00CAEF3FF0C450046E036AC3500324016E4F
:107FAE00000E0420026E12009268000E936E000EF8
:107FBE00946E000E956E000E966E8B90BAEC3FF09E
:107FCE00C1EC3FF001C005F002C006F09A0E055C50
:107FDE00010E0658D8A0F6EF3FF0F8EF3FF0FBEF9A
:107FEE003FF08B80E7EF3FF08B90E7EF3FF000EF35
:027FFE0000F091
:020000040020DA
:08000000FFFFFFFFFFFFFFFF00
:020000040030CA
:0E000000000C0E00FF8381FF0FC00FE00F40C9
:00000001FF
