:020000040000FA
:0400000085EF3FF059
:107F0A00000188EF3FF0000E926E000E936E000E95
:107F1A00946E000E956E000E966E000E836E010E24
:107F2A00836E030E026E8A0E016E560EE82EFED77F
:107F3A00012EFCD7022EFAD7D8908336030E026E92
:107F4A008A0E016E560EE82EFED7012EFCD7022E9F
:107F5A00FAD7D8908336030E026E8A0E016E560E39
:107F6A00E82EFED7012EFCD7022EFAD7D8908336F8
:107F7A00030E026E8A0E016E560EE82EFED7012EF1
:107F8A00FCD7022EFAD7D8908336030E026E8A0ED9
:107F9A00016E560EE82EFED7012EFCD7022EFAD716
:107FAA00D8908336030E026E8A0E016E560EE82EA4
:107FBA00FED7012EFCD7022EFAD7D8908336030EAD
:107FCA00026E8A0E016E560EE82EFED7012EFCD7DF
:107FDA00022EFAD7D8908336030E026E8A0E016EED
:107FEA00560EE82EFED7012EFCD7022EFAD794EFB2
:067FFA003FF000EF00F073
:020000040020DA
:08000000FFFFFFFFFFFFFFFF00
:020000040030CA
:0E000000000C0E00FF8181FF0FC00FE00F40CB
:00000001FF
