:020000040000FA
:04000000C0EF3EF01F
:107D80000001C3EF3EF0000E926E0F0E936E000ED8
:107D9000946E000E956E000E966E81A0D2EF3EF0AE
:107DA000D4EF3EF0EFEF3EF083681A0E026E5E0EE7
:107DB000016E6E0EE82EFED7012EFCD7022EFAD7EA
:107DC00000D0000E836E1A0E026E5E0E016E6E0EF5
:107DD000E82EFED7012EFCD7022EFAD700D081A2C2
:107DE000F4EF3EF0F6EF3EF066EF3FF0010E836EEB
:107DF000150E026E4B0E016EBE0EE82EFED7012E42
:107E0000FCD7022EFAD700D0D8908336150E026E1A
:107E10004B0E016EBE0EE82EFED7012EFCD7022EB1
:107E2000FAD700D0D8908336150E026E4B0E016E35
:107E3000BE0EE82EFED7012EFCD7022EFAD700D0B8
:107E4000D8908336150E026E4B0E016EBE0EE82ED4
:107E5000FED7012EFCD7022EFAD700D0D890833659
:107E6000150E026E4B0E016EBE0EE82EFED7012ED1
:107E7000FCD7022EFAD700D0D8908336150E026EAA
:107E80004B0E016EBE0EE82EFED7012EFCD7022E41
:107E9000FAD700D0D8908336150E026E4B0E016EC5
:107EA000BE0EE82EFED7012EFCD7022EFAD700D048
:107EB000D8908336150E026E4B0E016EBE0EE82E64
:107EC000FED7012EFCD7022EFAD700D081A46BEF8B
:107ED0003FF06DEF3FF0D5EF3FF0800E836E100E58
:107EE000026E390E016E0E0EE82EFED7012EFCD763
:107EF000022EFAD7D8908332100E026E390E016E20
:107F00000E0EE82EFED7012EFCD7022EFAD7D890FF
:107F10008332100E026E390E016E0E0EE82EFED761
:107F2000012EFCD7022EFAD7D8908332100E026EA3
:107F3000390E016E0E0EE82EFED7012EFCD7022E52
:107F4000FAD7D8908332100E026E390E016E0E0EE3
:107F5000E82EFED7012EFCD7022EFAD7D890833216
:107F6000100E026E390E016E0E0EE82EFED7012E97
:107F7000FCD7022EFAD7D8908332100E026E390E3B
:107F8000016E0E0EE82EFED7012EFCD7022EFAD778
:107F9000D8908332100E026E390E016E0E0EE82E4E
:107FA000FED7012EFCD7022EFAD781A6DAEF3FF0DA
:107FB000DCEF3FF0FAEF3FF0550E836E0D0E026ED0
:107FC000AF0E016EB60EE82EFED7012EFCD7022EA4
:107FD000FAD700D0AA0E836E0D0E026EAF0E016EA0
:107FE000B60EE82EFED7012EFCD7022EFAD700D00F
:107FF000CDEF3EF0000E836ECDEF3EF000EF00F0CF
:020000040020DA
:08000000FFFFFFFFFFFFFFFF00
:020000040030CA
:0E000000000C0E00FF8181FF0FC00FE00F40CB
:00000001FF
