:020000040000FA
:0400000069EF39F07B
:10720000026E84928494025010EC39F08482120051
:10721000026E84928484025010EC39F08482120051
:10722000016E9E96C95001C0C9FF9EA61AEF39F0A3
:107230001CEF39F015EF39F0C6501200036E540EF2
:10724000036025EF39F027EF39F02BEF39F00350C9
:10725000800900EC39F01200036E060E036033EF74
:1072600039F035EF39F039EF39F00350400900ECCF
:1072700039F01200000E926EE00E936E000E946EC6
:10728000000E956E000E966E0F0EC16E000E806E93
:10729000000E816E000E826E000E836E000E846EF4
:1072A0001200056E540E066E05501EEC39F00450A7
:1072B0002CEC39F060EF39F0100E08EC39F00606CE
:1072C0000650D8A466EF39F068EF39F05CEF39F07A
:1072D0001200C00EF66E770EF76E000EF86E06EE18
:1072E00020F011EEE0F00900F5CFEEFFE550E1509F
:1072F000FAE1E250F8E10F6A000EF86E0001D0EFFB
:107300003CF0000E036E000E046E000E08EC39F027
:10731000042A530E04648FEF39F091EF39F085EFB2
:1073200039F0032A050E036498EF39F09AEF39F02B
:1073300083EF39F01200A7EF39F009C0F6FF0AC059
:10734000F7FF0800F55042EC3AF0094A0A2A09C052
:10735000F6FF0AC0F7FF0800F5500009D8A4B3EF04
:1073600039F0B5EF39F09DEF39F01200056E060ED9
:10737000066E05501EEC39F004502CEC39F0220E4C
:1073800000EC39F0C8EF39F0FF0E08EC39F00606D2
:107390000650D8A4CEEF39F0D0EF39F0C4EF39F071
:1073A000200E00EC39F01200000E1EEC39F0000E39
:1073B0002CEC39F0000E046E000E056EFF0E08EC8A
:1073C00039F0052A530E0564E8EF39F0EAEF39F099
:1073D000DEEF39F0042A050E0464F1EF39F0F3EF23
:1073E00039F0DCEF39F012009690969096949596CD
:1073F00083968490030E046E8A0E036E560EE82E5A
:10740000FED7032EFCD7042EFAD78480210E00EC81
:1074100039F0070E00EC39F0130E00EC39F0C00E15
:1074200000EC39F0200E00EC39F00C0E00EC39F0D5
:107430001200000E1EEC39F0000E2CEC39F0849294
:107440008484000E096E000E086E08500424066E37
:1074500009500520076E06C0F6FF07C0F7FF0800B9
:10746000F55010EC39F0084A092AF80E085C010EB4
:107470000958D8A03EEF3AF040EF3AF025EF3AF045
:1074800084821200076E000E086E0750050D600E14
:10749000036EFF0E046E200E056E060E066E035080
:1074A000052604500622F3500526F4500622085003
:1074B0000524D96E000E0620DA6EDF5008EC39F094
:1074C000082A040E086467EF3AF069EF3AF045EFD6
:1074D0003AF0000E08EC39F01200000E1EEC39F004
:1074E000000E2CEC39F0300E096E3A0E0918D8A4B3
:1074F0007CEF3AF07EEF3AF080EF3AF0410E096E01
:107500005B0E0918D8A487EF3AF089EF3AF08BEFB9
:107510003AF0610E096E095042EC3AF0092A7A0EEF
:10752000096495EF3AF097EF3AF075EF3AF01200F0
:10753000056E000EC66E3F0EC7160550C6120250ED
:10754000C712ADEF3AF0C78CD2EF3AF0C688C78CBD
:10755000D2EF3AF0C688D2EF3AF00150036E046AD7
:107560000450000AD8B4B7EF3AF0D2EF3AF0035023
:10757000010AD8B4A3EF3AF0030AD8B4A6EF3AF060
:10758000010AD8B4AAEF3AF0D2EF3AF09382928A85
:10759000C79EE7EF3AF09382C79EE7EF3AF09392E7
:1075A000E7EF3AF00550036E046A0450000AD8B4BD
:1075B000DCEF3AF0CFEF3AF00350040AD8B4C6EF4C
:1075C0003AF0010AD8B4CBEF3AF0CFEF3AF093801B
:1075D000949E0F0EC16EC68A12003DEF3BF0000E66
:1075E0000C6E000E0B6E03C0F6FF04C0F7FF080020
:1075F000F550050D600E066EFF0E076E200E086E2C
:10760000060E096E0650082607500922F350082678
:10761000F45009220B500824D96E0C500920DA6E60
:10762000DF500A6E0550D8A418EF3BF01AEF3BF07C
:107630001BEF3BF00A1E0A5008EC39F00B4A0C2AEB
:107640000C5009E1050E0B5CD8A029EF3BF02BEFA5
:107650003BF0F3EF3AF0034A042A0550D8A433EF85
:107660003BF035EF3BF03AEF3BF0FF0E08EC39F022
:107670003DEF3BF0000E08EC39F003C0F6FF04C00C
:10768000F7FF0800F5500009D8A449EF3BF04BEF95
:107690003BF0EFEF3AF01200000E1EEC39F0000E56
:1076A0002CEC39F01E0E1EEC39F0000E2CEC39F0EB
:1076B000F90E096E7F0E0A6E9BEC39F0010E046E16
:1076C000000E51EC39F0000E1EEC39F0020E2CECDD
:1076D00039F0030E0F18D8A470EF3BF072EF3BF0B7
:1076E0007CEF3BF0C90E036E7F0E046E000E056E3C
:1076F000EDEC3AF082EF3BF0C90E096E7F0E0A6E98
:107700009BEC39F0000E1EEC39F0030E2CEC39F036
:10771000040E0F18D8A48FEF3BF091EF3BF09BEFD6
:107720003BF0D20E036E7F0E046E000E056EEDEC84
:107730003AF0A1EF3BF0D20E096E7F0E0A6E9BEC81
:1077400039F0000E1EEC39F0040E2CEC39F0050E69
:107750000F18D8A4AEEF3BF0B0EF3BF0BAEF3BF020
:10776000DB0E036E7F0E046E000E056EEDEC3AF03C
:10777000C0EF3BF0DB0E096E7F0E0A6E9BEC39F01A
:10778000000E1EEC39F0050E2CEC39F0060E0F1829
:10779000D8A4CDEF3BF0CFEF3BF0D9EF3BF0E40EB8
:1077A000036E7F0E046E000E056EEDEC3AF0DFEF17
:1077B0003BF0E40E096E7F0E0A6E9BEC39F012006E
:1077C000000000000000005F000000070007001438
:1077D0007F147F14242A7F2A1223130864623649F7
:1077E0005522500005030000001C224100004122E8
:1077F0001C0014083E081408083E08080050300019
:107800000008080808080060600000201008040252
:107810003E5149453E00427F400042615149462168
:1078200041454B311814127F1027454545393C4AD4
:107830004949300171090503364949493606494924
:10784000291E00363600000056360000081422417A
:1078500000141414141400412214080201510906E2
:10786000324979413E7E1111117E7F494949363EA8
:10787000414141227F4141221C7F494949417F09C1
:107880000909013E4149497A7F0808087F00417F84
:1078900041002040413F017F081422417F40404089
:1078A000407F020C027F7F0408107F3E4141413E31
:1078B0007F090909063E4151215E7F091929464683
:1078C0004949493101017F01013F4040403F1F20AC
:1078D00040201F3F4038403F63140814630708707E
:1078E00008076151494543007F41410002040810E7
:1078F000200041417F00040201020440404040401A
:10790000000102040020545454787F48444438381D
:1079100044444420384444487F3854545418087E22
:107920000901020C5252523E7F0804047800447D43
:1079300040002040443D007F1028440000417F402B
:10794000007C041804787C080404783844444438E3
:107950007C14141408081414187C7C0804040848C7
:1079600054545420043F4440203C4040207C1C2080
:1079700040201C3C4030403C44281028440C5050CF
:10798000503C4464544C44000836410000007F00E1
:107990000000413608001008081008784641467873
:1079A0003AEC39F0010E016E800E026E020E98EC78
:1079B0003AF0F4EC39F081EC39F083861A0E0E6E51
:1079C0005E0E0D6E6E0EE82EFED70D2EFCD70E2E1F
:1079D000FAD700D083961A0E0E6E5E0E0D6E6E0EE6
:1079E000E82EFED70D2EFCD70E2EFAD700D08386B8
:1079F0001A0E0E6E5E0E0D6E6E0EE82EFED70D2E5A
:107A0000FCD70E2EFAD700D0000E1EEC39F0000E77
:107A10002CEC39F0D4EC39F01A0E0E6E5E0E0D6EB1
:107A20006E0EE82EFED70D2EFCD70E2EFAD700D004
:107A300081EC39F01A0E0E6E5E0E0D6E6E0EE82E93
:107A4000FED70D2EFCD70E2EFAD700D06DEC3AF0F3
:107A50001A0E0E6E5E0E0D6E6E0EE82EFED70D2EF9
:107A6000FCD70E2EFAD700D00D0E00EC39F01A0E0E
:107A70000E6E5E0E0D6E6E0EE82EFED70D2EFCD72E
:107A80000E2EFAD700D00C0E00EC39F01A0E0E6E46
:107A90005E0E0D6E6E0EE82EFED70D2EFCD70E2E4E
:107AA000FAD700D081EC39F0410E0D6EEE0EE82EC3
:107AB000FED70D2EFCD700D0000E1EEC39F0000EC4
:107AC0002CEC39F0F30E096E7F0E0A6E9BEC39F048
:107AD000000E1EEC39F0010E2CEC39F0BD0E096ED3
:107AE0007F0E0A6E9BEC39F01A0E0E6E5E0E0D6E56
:107AF0006E0EE82EFED70D2EFCD70E2EFAD700D034
:107B000081EC39F0410E0D6EEE0EE82EFED70D2EF3
:107B1000FCD700D0000E1EEC39F0000E2CEC39F032
:107B2000F30E036E7F0E046E000E056EEDEC3AF060
:107B3000000E1EEC39F0010E2CEC39F0BD0E036E78
:107B40007F0E046E000E056EEDEC3AF01A0E0E6E0E
:107B50005E0E0D6E6E0EE82EFED70D2EFCD70E2E8D
:107B6000FAD700D081EC39F0410E0D6EEE0EE82E02
:107B7000FED70D2EFCD700D0000E1EEC39F0000E03
:107B80002CEC39F00C0E00EC39F0410E0D6EEE0EBF
:107B9000E82EFED70D2EFCD700D0C50E046E7D0E4C
:107BA000056E19EC3AF01A0E0E6E5E0E0D6E6E0E2C
:107BB000E82EFED70D2EFCD70E2EFAD700D00D0ED4
:107BC00000EC39F01A0E0E6E5E0E0D6E6E0EE82E83
:107BD000FED70D2EFCD70E2EFAD700D00C0E00ECDF
:107BE00039F01A0E0E6E5E0E0D6E6E0EE82EFED77A
:107BF0000D2EFCD70E2EFAD700D081EC39F0410EB5
:107C00000D6EEE0EE82EFED70D2EFCD700D0050E21
:107C1000046E000E51EC39F0410E0D6EEE0EE82EA2
:107C2000FED70D2EFCD700D0000E046E030EB6EC6E
:107C300039F0410E0D6EEE0EE82EFED70D2EFCD75C
:107C400000D0000E1EEC39F0000E2CEC39F0410E85
:107C500042EC3AF0410E0D6EEE0EE82EFED70D2EE0
:107C6000FCD700D0060E1EEC39F0010E2CEC39F0DA
:107C7000410E42EC3AF0410E0D6EEE0EE82EFED7AC
:107C80000D2EFCD700D00C0E1EEC39F0020E2CECA1
:107C900039F0410E42EC3AF0410E0D6EEE0EE82E38
:107CA000FED70D2EFCD700D0000E1EEC39F0030ECF
:107CB0002CEC39F0ED0E096E7F0E0A6E9BEC39F05C
:107CC000410E0D6EEE0EE82EFED70D2EFCD700D025
:107CD000060E1EEC39F0040E2CEC39F0ED0E096E98
:107CE0007F0E0A6E9BEC39F0410E0D6EEE0EE82E03
:107CF000FED70D2EFCD700D00C0E1EEC39F0050E71
:107D00002CEC39F0ED0E096E7F0E0A6E9BEC39F00B
:107D10001A0E0E6E5E0E0D6E6E0EE82EFED70D2E36
:107D2000FCD70E2EFAD700D081EC39F095948384DD
:107D3000030E0F6E4CEC3BF081AEA1EF3EF0A3EFD3
:107D40003EF0B3EF3EF081BEA8EF3EF0AAEF3EF06A
:107D5000A3EF3EF0410E0D6EEE0EE82EFED70D2E77
:107D6000FCD700D00F0681ACB8EF3EF0BAEF3EF082
:107D7000CAEF3EF081BCBFEF3EF0C1EF3EF0BAEF7C
:107D80003EF0410E0D6EEE0EE82EFED70D2EFCD706
:107D900000D00F2A020E0F18D8A4D1EF3EF0D3EF77
:107DA0003EF0D5EF3EF0060E0F6E070E0F18D8A46A
:107DB000DCEF3EF0DEEF3EF09AEF3EF098EF3EF063
:107DC00000EF00F0000000000000000000000000D4
:107DD00000000000000000000000000000000000A3
:107DE0000000000000000000000000000000000093
:107DF0000000000080808080C0C04060E060F070C3
:107E0000301800000000000000000000000000002A
:107E10000000000000000000000000000000000062
:107E20000000000000008080C060E0A0B07050D86A
:107E3000F8A8ECFCFC5E6060A0F0F09880C0C0C0C8
:107E40006060F03EA6B3B795FD7D0FC6FE3D0D0FF9
:107E50000707070600000000000000808080808087
:107E60008080000000000000000000000000000012
:107E700000000000000000F0FC87F9B6ACAFBE3691
:107E8000171787FFF93F86FA3F17829B1B49F11F9F
:107E90000136B692FEBFC3C8C9CD677FE3B0B0FF5D
:107EA000D3D0D8F8682CFCFCFE8EEA7B3BFFFDEDBE
:107EB000EFFEBEFE7DEFFF38000000000000000076
:107EC000000000001030B0F878080C0C058787C35C
:107ED000C36160F0B8BEBFFFD9DCFFEFADACFFF708
:107EE000D6DFFBFB6BEFBDBDB5F7FA1FDFF9FA1F5D
:107EF000EDFD0FE3FF2EDF6B6B7BB7FD1D2F118BAD
:107F00009F97170B2D76F79B1E0F030000000000B4
:107F1000000000000010180C0E0F05060602371FA7
:107F20001F1F1F0A0D8DCFFFBEDEC70709C7E66BF7
:107F3000E3E33F07FA1F237C6F2606E37B0FC0F2C3
:107F40007181C17E07C0FE9F83888CCCCCC6F71F91
:107F50008180F07F03071C3060C080810303020230
:107F6000020202C3FB3B0F030100000000000000FF
:107F70000000000000000000000101211C1F0C0C8B
:107F80000C1F01080F070607030606060202070773
:107F900006060301010F0F060303010100000000A4
:107FA00000070303010101000000000000000101BF
:107FB0000303030206070707000000000028282823
:107FC0005445535445292929004F7063616F20316E
:107FD0003A004F7063616F20323A004F7063616FF7
:107FE00020333A004F7063616F20343A0054657358
:0F7FF0007465007465737465004D454E5500004F
:020000040020DA
:08000000FFFFFFFFFFFFFFFF00
:020000040030CA
:0E000000000C0E00FF8181FF0FC00FE00F40CB
:00000001FF
