:020000040000FA
:0400000085EF3FF059
:107F0A00000188EF3FF0000E926E000E936E000E95
:107F1A00946E000E956E000E966E000E836E838030
:107F2A00030E026E8A0E016E560EE82EFED7012E41
:107F3A00FCD7022EFAD783908382030E026E8A0E32
:107F4A00016E560EE82EFED7012EFCD7022EFAD766
:107F5A0083928384030E026E8A0E016E560EE82EF9
:107F6A00FED7012EFCD7022EFAD783948386030EFE
:107F7A00026E8A0E016E560EE82EFED7012EFCD72F
:107F8A00022EFAD783968388030E026E8A0E016E3A
:107F9A00560EE82EFED7012EFCD7022EFAD783986A
:107FAA00838A030E026E8A0E016E560EE82EFED7E3
:107FBA00012EFCD7022EFAD7839A838C030E026E07
:107FCA008A0E016E560EE82EFED7012EFCD7022E1F
:107FDA00FAD7839C838E030E026E8A0E016E560EAA
:107FEA00E82EFED7012EFCD7022EFAD7839E94EFF5
:067FFA003FF000EF00F073
:020000040020DA
:08000000FFFFFFFFFFFFFFFF00
:020000040030CA
:0E000000000C0E00FF8181FF0FC00FE00F40CB
:00000001FF
