:020000040000FA
:0400000098EF3FF046
:107F300000019BEF3FF00F0EC16E000E926E936832
:107F4000000E946E000E956E000E966E81A0ABEF43
:107F50003FF0ADEF3FF0B0EF3FF0838EB1EF3FF079
:107F6000839E81A2B6EF3FF0B8EF3FF0BBEF3FF04A
:107F7000838CBCEF3FF0839C81A4C1EF3FF0C3EF43
:107F80003FF0C6EF3FF0838AC7EF3FF0839A81A6A8
:107F9000CCEF3FF0CEEF3FF0D1EF3FF08388D2EF50
:107FA0003FF0839881A8D7EF3FF0D9EF3FF0DCEFA7
:107FB0003FF08386DDEF3FF0839681AAE2EF3FF04A
:107FC000E4EF3FF0E7EF3FF08384E8EF3FF0839486
:107FD00081ACEDEF3FF0EFEF3FF0F2EF3FF0838247
:107FE000F3EF3FF0839281AEF8EF3FF0FAEF3FF00E
:107FF000FDEF3FF08380FEEF3FF0839000EF00F055
:020000040020DA
:08000000FFFFFFFFFFFFFFFF00
:020000040030CA
:0E000000000C0E00FF8381FF0FC00FE00F40C9
:00000001FF
