:020000040000FA
:040000009AEF3FF044
:107F340000019DEF3FF0000E926E9368000E946E68
:107F4400000E956E000E966E81A0ABEF3FF0ADEF84
:107F54003FF0B0EF3FF08380B1EF3FF0839081A218
:107F6400B6EF3FF0B8EF3FF0BBEF3FF08382BCEFDA
:107F74003FF0839281A4C1EF3FF0C3EF3FF0C6EF1F
:107F84003FF08384C7EF3FF0839481A6CCEF3FF0AA
:107F9400CEEF3FF0D1EF3FF08386D2EF3FF08396F0
:107FA40081A8D7EF3FF0D9EF3FF0DCEF3FF08388B3
:107FB400DDEF3FF0839881AAE2EF3FF0E4EF3FF07A
:107FC400E7EF3FF0838AE8EF3FF0839A81ACEDEF6F
:107FD4003FF0EFEF3FF0F2EF3FF0838CF3EF3FF031
:107FE400839C81AEF8EF3FF0FAEF3FF0FDEF3FF0F6
:0C7FF400838EFEEF3FF0839E00EF00F054
:020000040020DA
:08000000FFFFFFFFFFFFFFFF00
:020000040030CA
:0E000000000C0E00FF8181FF0FC00FE00F40CB
:00000001FF
