:020000040000FA
:0400000066EF08F0AF
:100800000054454E5445204E4F56414D454E54459B
:100810000050657267756E7461202D20310050653F
:100820007267756E7461202D203200506572677595
:100830006E7461202D20330045206F75206E616F2E
:1008400020453F005041524142454E532100455200
:10085000524F552121210041434552544F5521000B
:0B08600046494D21005175697A0000E7
:10086C000A6E95949598959A959C959E95929590CF
:10087C000AB002D0839001D0838003B002D083925F
:10088C0001D0838203500410D8A44FEF04F051EF31
:10089C0004F0CCEF04F0086A05AE01D0082A084633
:1008AC00084683500818FB0B0818836E05C008F027
:1008BC00060E096ED8900832092E60EF04F0083A43
:1008CC0083500818EF0B0818836E05C008F0050E4E
:1008DC00096ED8900832092E6FEF04F0083A0846DA
:1008EC0083500818DF0B0818836E05C008F0083A0F
:1008FC000F0E0816083A0846084683500818BF0B16
:10090C000818836E838E000E026E020E016E7BEC55
:10091C0008F0839E05C008F0D8900832D8900832B1
:10092C00D89008320846084683500818FB0B081864
:10093C00836E05C008F0D8900832D8900832083A77
:10094C0083500818EF0B0818836E05C008F0D89078
:10095C000832083A084683500818DF0B0818836ED3
:10096C0005B002D0839C01D0838C838E000E026E66
:10097C00020E016E7BEC08F0839E06C001F007C0EE
:10098C0002F07BEC08F0000E4DEF05F09584958895
:10099C00958A958C838E000E026E020E016E7BEC96
:1009AC0008F0000E83B4010E0B6E83B8E0EF04F078
:1009BC00E4EF04F0086A082AE5EF04F0086A0B502B
:1009CC000B2408100B6E83BAEEEF04F0F2EF04F078
:1009DC00086A082AF3EF04F0086A0B500B2408107D
:1009EC000B6E83BCFCEF04F000EF05F0086A082ADC
:1009FC0001EF05F0086A0B500B2408100B6E839E58
:100A0C00838E000E026E020E016E7BEC08F083B436
:100A1C0012EF05F016EF05F0086A082A17EF05F03B
:100A2C00086A0B500B2408100B6E83B820EF05F0EE
:100A3C0024EF05F0086A082A25EF05F0086A0B5028
:100A4C000B2408100B6E83BA2EEF05F032EF05F075
:100A5C00086A082A33EF05F0086A0B500B240810BB
:100A6C000B6E83BC3CEF05F040EF05F0086A082ADA
:100A7C0041EF05F0086A0B500B2408100B6E839E97
:100A8C0006C001F007C002F07BEC08F00B5012001E
:100A9C000F6E20EE19F010EE10F0050EDBCFE3FF19
:100AAC00E806FCE20FC012F00CC013F00DC014F0FD
:100ABC0095949598959A959C959E959295908390E2
:100ACC008392839E4E0E026E200E016E7BEC08F01C
:100ADC00000E166E10C00EF0D8900E32D8900E325A
:100AEC00D8900E320E460E4683500E18FB0B0E1885
:100AFC00836E10C00EF0D8900E32D8900E320E3A93
:100B0C0083500E18EF0B0E18836E10C00EF0D89099
:100B1C000E320E3A0E4683500E18DF0B0E18836EF3
:100B2C0010B002D0839C01D0838C838E000E026E99
:100B3C00020E016E7BEC08F0839E130E026E880E83
:100B4C00016E7BEC08F0162A020E1664B0EF05F06D
:100B5C00B2EF05F070EF05F011C00EF0D8900E3228
:100B6C00D8900E32D8900E320E460E4683500E1888
:100B7C00FB0B0E18836E11C00EF0D8900E32D8906D
:100B8C000E320E3A83500E18EF0B0E18836E11C0F6
:100B9C000EF0D8900E320E3A0E4683500E18DF0B24
:100BAC000E18836E11B002D0839C01D0838C838E7F
:100BBC00000E026E020E016E7BEC08F0839E000E9E
:100BCC00026E280E016E7BEC08F0000E046E000E17
:100BDC00036E12C005F0000E076E280E066E000E96
:100BEC0036EC04F0000E046E000E036E13C005F01C
:100BFC00000E076E280E066E000E36EC04F0000E8A
:100C0C00046E000E036E14C005F0000E076E280E65
:100C1C00066E000E36EC04F09CEC08F01200000E90
:100C2C00926E030E936E000E946E000E956E000E77
:100C3C00966E829082920F0E0C6E060E0D6E280E22
:100C4C004EEC05F0AAEC08F0070E0C6E010E25EC2C
:100C5C0007F0650E0D6E080E0E6E4BEC08F0070ECD
:100C6C000C6E020E25EC07F0650E0D6E080E0E6E66
:100C7C004BEC08F01A0E186E5E0E176E6E0EE82E08
:100C8C00FED7172EFCD7182EFAD700D0AAEC08F0F6
:100C9C000FEC08F081A055EF06F057EF06F05BEF74
:100CAC0006F0BEEC06F066EF06F081A260EF06F0EF
:100CBC0062EF06F04CEF06F086EC07F04CEF06F016
:100CCC00AAEC08F0F1EC07F081A06FEF06F071EFE1
:100CDC0006F073EF06F086EC07F081A278EF06F0D1
:100CEC007AEF06F066EF06F0BEEC06F0AAEC08F020
:100CFC00D3EC07F081A085EF06F087EF06F08BEFC1
:100D0C0006F0BEEC06F096EF06F081A290EF06F02E
:100D1C0092EF06F07CEF06F086EC07F07CEF06F025
:100D2C00AAEC08F0070E0C6E010E25EC07F0600E15
:100D3C000D6E080E0E6E4BEC08F0070E0C6E020ECC
:100D4C0025EC07F0600E0D6E080E0E6E4BEC08F0E5
:100D5C001A0E186E5E0E176E6E0EE82EFED7172E3C
:100D6C00FCD7182EFAD700D0AAEC08F000EF00F050
:100D7C00AAEC08F0050E0C6E010E25EC07F0570ED0
:100D8C000D6E080E0E6E4BEC08F0050E0C6E020E7E
:100D9C0025EC07F0440E0D6E080E0E6E4BEC08F0B1
:100DAC0082800D0E136EAF0E126EB60EE82EFED7AD
:100DBC00122EFCD7132EFAD700D082900D0E136E84
:100DCC00AF0E126EB60EE82EFED7122EFCD7132ED7
:100DDC00FAD700D082800D0E136EAF0E126EB60EC7
:100DEC00E82EFED7122EFCD7132EFAD700D0829005
:100DFC000D0E136EAF0E126EB60EE82EFED7122E1F
:100E0C00FCD7132EFAD700D082800D0E136EAF0EC6
:100E1C00126EB60EE82EFED7122EFCD7132EFAD772
:100E2C0000D082900D0E136EAF0E126EB60EE82E21
:100E3C00FED7122EFCD7132EFAD700D012000F6E4D
:100E4C0068EF07F0000E046E000E036E0C507F0F5F
:100E5C00056E000E076E280E066E000E36EC04F0C2
:100E6C0085EF07F0000E046E000E036E0C50BF0FE2
:100E7C00056E000E076E280E066E000E36EC04F0A2
:100E8C0085EF07F0000E046E000E036E0C50930FEE
:100E9C00056E000E076E280E066E000E36EC04F082
:100EAC0085EF07F0000E046E000E036E0C50D30F8E
:100EBC00056E000E076E280E066E000E36EC04F062
:100ECC0085EF07F00F500D6E0E6A0E50000AD8B465
:100EDC0072EF07F085EF07F00D50010AD8B428EF38
:100EEC0007F0030AD8B438EF07F0010AD8B448EF7A
:100EFC0007F0070AD8B458EF07F085EF07F0120097
:100F0C00AAEC08F0050E0C6E010E25EC07F04E0E47
:100F1C000D6E080E0E6E4BEC08F0010E0C6E020EF0
:100F2C0025EC07F0010E0D6E080E0E6E4BEC08F062
:100F3C0082820D0E136EAF0E126EB60EE82EFED719
:100F4C00122EFCD7132EFAD700D082920D0E136EF0
:100F5C00AF0E126EB60EE82EFED7122EFCD7132E45
:100F6C00FAD700D082820D0E136EAF0E126EB60E33
:100F7C00E82EFED7122EFCD7132EFAD700D0829271
:100F8C000D0E136EAF0E126EB60EE82EFED7122E8D
:100F9C00FCD7132EFAD700D01200010E0C6E010EE6
:100FAC0025EC07F02B0E0D6E080E0E6E4BEC08F0B8
:100FBC00010E0C6E020E25EC07F0380E0D6E080EAD
:100FCC000E6E4BEC08F0820E106EDE0EE82EFED785
:100FDC00102EFCD71200010E0C6E010E25EC07F042
:100FEC001E0E0D6E080E0E6E4BEC08F0010E0C6E04
:100FFC00020E25EC07F0380E0D6E080E0E6E4BEC43
:10100C0008F0820E106EDE0EE82EFED7102EFCD7E6
:10101C001200010E0C6E010E25EC07F0110E0D6E78
:10102C00080E0E6E4BEC08F0010E0C6E020E25EC49
:10103C0007F0380E0D6E080E0E6E4BEC08F0820E9B
:10104C00106EDE0EE82EFED7102EFCD71200116E9D
:10105C0020EE1FF010EE0CF0040EDBCFE3FFE806E1
:10106C00FCE2000E046E000E036E0C0E1124D96E01
:10107C00DA6A000EDA22DF50056E000E076E280EBB
:10108C00066E000E36EC04F0120057EF08F00DC09F
:10109C00F6FF0EC0F7FF0800F5508DEC08F00D4A76
:1010AC000E2A0DC0F6FF0EC0F7FF0800F550000920
:1010BC00D8A463EF08F065EF08F04DEF08F01200CC
:1010CC006A0EF66E110EF76E000EF86E00EE19F049
:1010DC0010EE0FF00900F5CFEEFFE550E150FAE10C
:1010EC00000EF86E000115EF06F000F000F000F0B5
:1010FC0000F000F00106D8A0020601500210D8A49E
:10110C008AEF08F08CEF08F07BEF08F012000C6E01
:10111C00000E046E000E036E0CC005F0000E076E80
:10112C002D0E066E010E36EC04F01200000E046E4D
:10113C00000E036E010E056E070E076ED00E066EC6
:10114C00000E36EC04F012009CEC08F0010E0C6E54
:10115C00010E25EC07F0000E2DEC08F01200030236
:0D116C00000000000C080F0E0D1C181410E0
:020000040020DA
:08000000FFFFFFFFFFFFFFFF00
:020000040030CA
:0E000000000C0E00FF8181FF0FC00FE00F40CB
:00000001FF
