:020000040000FA
:0400000031EF3FF0AD
:107E58003F065B4F666D7D077F6F580EF66E7E0E90
:107E6800F76E000EF86E00EE10F010EE0AF0090042
:107E7800F5CFEEFFE550E150FAE1000144EF3FF0A5
:107E8800000E926E1C0E936E000E956E000E946E90
:107E9800000E966EF19E20EE10F010EE04F0090E22
:107EA800DBCFE3FFE806FCE26AEC3FF001C00EF02E
:107EB80002C00FF0040E0E24D96E000E0F20DA6EE9
:107EC800DF50836E58EF3FF000EF00F0818A818C1D
:107ED800819E820E036EDE0EE82EFED7032EFCD79F
:107EE80081B879EF3FF07BEF3FF081EF3FF0000E74
:107EF800026E030E016EFFEF3FF081B686EF3FF092
:107F080088EF3FF08EEF3FF0000E026E060E016E16
:107F1800FFEF3FF081B493EF3FF095EF3FF09BEF19
:107F28003FF0000E026E090E016EFFEF3FF0819CDC
:107F3800818E820E036EDE0EE82EFED7032EFCD74E
:107F480081B8A9EF3FF0ABEF3FF0B1EF3FF0000E83
:107F5800026E020E016EFFEF3FF081B6B6EF3FF002
:107F6800B8EF3FF0BEEF3FF0000E026E050E016E57
:107F7800FFEF3FF081B4C3EF3FF0C5EF3FF0CBEF29
:107F88003FF0000E026E080E016EFFEF3FF0819A7F
:107F9800818C820E036EDE0EE82EFED7032EFCD7F0
:107FA80081B8D9EF3FF0DBEF3FF0E1EF3FF0000E93
:107FB800026E010E016EFFEF3FF081B6E6EF3FF073
:107FC800E8EF3FF0EEEF3FF0000E026E040E016E98
:107FD800FFEF3FF081B4F3EF3FF0F5EF3FF0FBEF39
:107FE8003FF0000E026E070E016EFFEF3FF0000E2D
:087FF800026E000E016E120082
:020000040020DA
:08000000FFFFFFFFFFFFFFFF00
:020000040030CA
:0E000000000C0E00FF8181FF0FC00FE00F40CB
:00000001FF
